:10000000544649530001000078350300804D852592
:1000100023980238220923164356325923980101A6
:100020002209231643563259239801012209231627
:100030004356325903000000000000000000000099
:10004000544643530020000014EC0200000000005E
:1000500000000220012100002521000059F90100C3
:10006000292100002B2100002D2100003D2100004E
:100070003D2100003D2100003D2100002F21000016
:10008000312100003D2100003321000015720000E5
:10009000A3770000372100003D21000045C3800008
:1000A00037210000115500001555000069A080009F
:1000B00037210000336E000069640000195500000C
:1000C000F96B00003721000037210000655F000058
:1000D00037210000372100003721000037210000C0
:1000E0000000000000000000000000000000000010
:1000F0000000000000000000000000000000000000
:1001000000000000000000000000000000000000EF
:1001100000000000000000000000000000000000DF
:1001200000000000000000000000000000000000CF
:1001300000000000000000000000000000000000BF
:1001400000000000000000000000000000000000AF
:1001500000F003F800F020F8FEE70D480168890878
:100160008900002001C101C101C101C17047000027
:100170005CE98000FEE7FEE7FEE7FEE7FEE7FEE75C
:10018000FEE7FEE7FEE703480047FEE7FEE7000064
:10019000202100003D21000000F002F800F068F886
:1001A0000AA090E8000C82448344AAF10107DA45D2
:1001B00001D100F05DF8AFF2090EBAE80F0013F0BC
:1001C000010F18BFFB1A43F001031847C8FE0100D6
:1001D00038FF01000A444FF0000C10F8013B13F007
:1001E000070408BF10F8014B1D1108BF10F8015B90
:1001F000641E05D010F8016B641E01F8016BF9D183
:1002000013F0080F1EBF10F8014BAD1C0C1B09D1D9
:100210006D1E58BF01F801CBFAD505E014F8016B4B
:1002200001F8016B6D1EF9D59142D6D370470000DD
:10023000103A24BF78C878C1FAD8520724BF30C812
:1002400030C144BF04680C607047000000230024E4
:1002500000250026103A28BF78C1FBD8520728BFD6
:1002600030C148BF0B6070471FB51FBD10B510BD32
:10027000DFF80CD0FFF7F8FF06F0C2FB1DF088FB9B
:100280000000022003B4FFF7F1FF03BC1DF086FB62
:1002900008B500200346024600900121022000F02C
:1002A00070FB08BD38B5FF4D0024FF48AC81EC81E0
:1002B0002C8240698047E861FF202872FB480023B8
:1002C0001A46046044608460C4600461012068725E
:1002D0002C70AC70EC7001460220009400F051FBD1
:1002E000012038BD38B5EF4D02282C7A22460DD0BA
:1002F000052810D0A24208BF38BD002003460246A0
:100300002146009000F03DFB2C7238BD022914BF3D
:1003100001240224EEE7022914BF04240824E9E79B
:1003200008B5009313460A460146012000F029FB58
:1003300008BD08B50346009103220221012000F008
:1003400020FB08BD38B500240EF0CDFA002818BFF8
:10035000012413F049F8002818BF0224D14801787D
:10036000A14208BF38BD047000200346022100905E
:100370002246084600F005FB38BD38B5C94D044695
:100380006878A04208BF38BD06F056FB6C70002CA0
:100390000CBF0521062100200346024600900220E2
:1003A00000F0EFFA38BD08B500210B460246009177
:1003B0000721022000F0E5FA08BD08B500210B4630
:1003C000024600910821022000F0DBFA08BD08B5C2
:1003D00000210091002814BF0122002200230321E4
:1003E000022000F0CEFA08BD08B500200346024600
:1003F00000900421022000F0C4FA08BDA94B002897
:10040000DA7814BF01210021D9708A4208BF7047F1
:10041000021C18BF012208B50020034600900A21E3
:10042000022000F0AEFA08BD9E4B00289A7814BF57
:100430000121002199708A4208BF7047021C18BF31
:10044000012208B50020034600900921022000F097
:1004500098FA08BD93488078002818BF012070479B
:1004600001209049087170478E48007970478D4986
:100470000020087170472DE9F0410446012700254E
:1004800003F00700874E8846012804BF0020308211
:1004900048D0022846D1308A834904280BD200284C
:1004A00018BFB06902D148688047B06110F8011BDD
:1004B0002170B0612FE0062809D288688047318A10
:1004C00080B2C1F10501C900C840207023E00828AE
:1004D00008D208698047318AC1F10701C900C840C4
:1004E000207018E00C2808D248698047318AC1F191
:1004F0000B01C900C84020700DE00E2808D28869A1
:100500008047318AC1F10D01C900C840207002E066
:10051000FF2020700027308A401C80B230820E28D5
:1005200028BF012588F800503846BDE8F08130B476
:1005300003F007000024DFF86CC1012804BFACF809
:100540000C40ACF810401BD013F0070F18D1554BDE
:10055000BCF810009B89022805D2120242EA13223D
:10056000ACF80C2009E003449D1EB5F5806F04DA59
:10057000DCF81C502B4403F8022C401CACF8100093
:100580000C7030BC00207047F0B40746002003F028
:100590000704444D0646012C04BF2E826E6125D00F
:1005A000DFF800C1022CBCF80EC003D013F0070F17
:1005B0000DD01BE02A8A0CEB0203B3F5806F15D235
:1005C000E869C05C3870501C288201200EE01202DD
:1005D00042EA1C22EA816B69012B05D1B2F5806FDA
:1005E00024BF40F2FF32EA815A1C6A610E70F0BCEF
:1005F000704738B503F0070000240D46012809D1E3
:10060000284800231A460482848119460220009457
:1006100000F0B7F92C70002038BD2DE9F04182B010
:1006200017460C0005464FF0000800F003812678BD
:100630001F49012E18BF022E05D0032E5BD0002EBD
:1006400000F0F880BEE06078421E05EB001000F874
:10065000102C607805EB001000F80F6C08686288B9
:10066000438DC08C5A4392FBF0F0627805EB021286
:1006700022F80E0C0868A288018D808C514391FBF2
:10068000F0F0617805EB011121F80C0C6178A0798C
:1006900005EB011121F80A0C6178207A05EB0111B4
:1006A00008E0000004E98000281F02005CE98000E7
:1006B0000409012021F8080C6178607A05EB01112A
:1006C00021F8060C6178A07B05EB011121F8040CE0
:1006D000E0790528607805EB001010F8021C0CBFCB
:1006E00041F0010121F0010100F8021C002E69D146
:1006F00002B0BDE8F0816078421E05EB001000F802
:10070000102C6278032005EB021202F80F0C086827
:100710006288438DC08C5A4392FBF0F0627805EBFF
:10072000021222F80E0C0868A288018D808C5143B9
:1007300091FBF0F0617805EB011121F80C0C06F04B
:100740007BF9052821D107B36178B87905EB011150
:1007500021F80A0C6178387A05EB011121F8080CB0
:100760006178787A05EB011121F8060CF8790528F3
:10077000607805EB001010F8021C0CBF41F001017D
:1007800021F0010100F8021C17E0607805EB001071
:1007900020F80A8C607805EB001020F8088C60784F
:1007A00005EB001020F8068C607805EB001010F8BF
:1007B000021C21F0010100F8021C607805EB00101A
:1007C00020F8048C012E18BF032E06D00DF029FE50
:1007D000002804BF02B0BDE8F08106F02DF905281D
:1007E0001CBF02B0BDE8F081012E04BFC0208DF80F
:1007F000000005D0022E0CBFC220C1208DF80000E1
:1008000060788DF8010060880123000A8DF80200ED
:10081000A0788DF80300A0880622000A8DF8040055
:1008200020798DF805006946072011F090FB02B091
:10083000BDE8F08185F8008085F80180A5F8028088
:10084000A5F80480A5F80680A5F80880A5F80A8018
:10085000A5F80C80A87B20F00100A87302B0BDE8C9
:10086000F0814D490020487170474B4840797047EE
:10087000002818BF01204849887170474648807990
:100880007047002818BF01204349C871704742488B
:10089000C07970474049488170473F484089704758
:1008A0003D490120487170473C4B03EB80004254A6
:1008B000704730B585B001788DF8001042788DF81A
:1008C000012082788DF80220C2788DF80320027909
:1008D0008DF8042042798DF8052080798DF8060086
:1008E000002001252C4C8DF807000290039052291E
:1008F00005D1A07988B9A57118F098FB60819DF8A1
:100900000000462801BF9DF801000128E079002879
:1009100003D1E57118F08AFB608106F0ACF901287B
:100920000CD100F076D8012801BF9DF800004628C0
:100930009DF80100012804BF05B030BD684607F0EE
:1009400035DD05B030BD70471349002818BF0120C0
:10095000487270471048407A7047012818BF7047A6
:100960000F48012904BF416841F4807105D0002976
:1009700006BF416821F480717047416070470948A3
:10098000704708B5DDF808C0CDF800C0DFF818C022
:10099000DCF800C0E04708BD04E980005CE98000A5
:1009A00000100040641A0200281F0200704700284F
:1009B00018BF0120FE4908627047FD48006A002800
:1009C00018BF01207047C00000F1804000F5A04032
:1009D00041637047C00000F1804000F5A040006B0B
:1009E00000F4807070471021C00000F1804000F5D5
:1009F000A0404163704730B48209EE4B00F00F0015
:100A000000EB400053F822404FF4847505EB80154D
:100A1000D1F800C044F805C053F822204FF4867383
:100A200003EB80104968115030BC704750B1820907
:100A3000E04850F82200D0F8402161F30D22C0F8C0
:100A400040217047DA48D0F83C2161F30D22C0F80C
:100A50003C217047002804BFD548D0F83C0105D0A0
:100A6000D449800951F82000D0F84001C0F3052096
:100A70007047CF49D1F83C2160F31742C1F83C21BF
:100A80007047CB48D0F83C01C0F307407047C8B16D
:100A90004FF4A072C0F3011302EB8312DFF814C30A
:100AA00000F00F03800903EB43035CF820000029EA
:100AB00000EB831081580CBF21F0010141F00101CE
:100AC00081507047BA480029D0F83C1114BF41F05A
:100AD000010121F00101C0F83C117047002804BF5A
:100AE000B348D0F83C0110D0B24A810952F8212015
:100AF00000F00F0101EB410102EB8111C0F3011085
:100B00004FF4A07202EB8010085800F0010070470B
:100B1000A84A810952F82110D1F8E01100F00F0025
:100B2000012201F0070102FA00F0084018BF01207D
:100B300070474FF4A072C0F3011302EB8312DFF889
:100B400074C200F00F03800903EB43035CF820003C
:100B5000002900EB8310815814BF41F0020121F0FD
:100B6000020181507047934A810952F8212000F018
:100B70000F0101EB410102EB8111C0F301104FF4B1
:100B8000A07202EB80100858C0F3400070472DE9B6
:100B9000F047860987480D4650F826404FF0000080
:100BA00020620CBFC4F83C01C4F84001C4F8000244
:100BB000C4F84002C4F8C002C4F80003002D08BF06
:100BC000BDE8F0872868206068686060616801207F
:100BD000002908BF606078490860A968A160E968D9
:100BE000E160296921616969A161A969E161296AF5
:100BF0006162696AE16221216163E163A96A21643A
:100C0000E96A6164296BA164696BE164A96B216580
:100C1000E96B6165296C2166696C6166A96CA166E6
:100C2000E96CE166296D2167696D6167A96DA1674E
:100C3000E96DE167296EC4F88010696EC4F884100C
:100C4000A96EC4F88810E96EC4F88C10296FC4F836
:100C50009010C4F89C00686FC4F8A400A86FC4F892
:100C6000A800E86FC4F8AC00D5F88000C4F8B00064
:100C7000D5F88400C4F8B400D5F88800C4F8B800EA
:100C8000D5F88C00C4F8BC00D5F89000C4F8C000BA
:100C90004FF0FF30C4F8E400D5F89400C4F8E80041
:100CA000D5F89800C4F8F000D5F89C00C4F8F4001A
:100CB000D5F8A000C4F8FC004FF4107205F1A401AF
:100CC00004F5807006F0BBDFCEB9D5F8E40220F45D
:100CD0008030C4F84003D5F8E802C4F84C03D5F8D6
:100CE000EC02C4F85003D5F8F002C4F85403D5F868
:100CF000F402C4F85803D5F8F802C4F85C030020E5
:100D000005EBC001D1F8FC3204EBC002C2F860333D
:100D1000D1F80013C2F86413401C0328F0DBD5F8A7
:100D20001403C4F87803D5F81803C4F87C03D5F885
:100D30001C03C4F88003D5F82003C4F88403D5F855
:100D40002403C4F88803D5F82803C4F89403D5F81D
:100D50002C03C4F89803D5F83003C4F89C03D5F8E5
:100D60003403C4F80004D5F83803C4F80404D5F8F3
:100D70003C03C4F810040023002004EBC30C05EB73
:100D8000C30707EB8001D1F840830CEB8002C2F867
:100D90003084D1F86813C2F85814401C0228F0DBE4
:100DA0005B1C052BE8DB012E08BF00210BD005E002
:100DB00000500040A01A020004580040002E08BF56
:100DC000002032D05CE001EB410305EB8302002000
:100DD00004EB830302EB800CDCF890C303EB800789
:100DE000C7F880C4401C0328F4DB05EB8102D2F86D
:100DF000C03304EB8100C0F8BC34D2F8D023C0F873
:100E0000D024002004EBC10305EBC10202EB800CEF
:100E1000DCF8E0C303EB8007C7F8E4C4401C0228F9
:100E2000F4DB491C0429CEDB2AE005EB8001D1F874
:100E3000903304EB8002C2F89034D1F89C33C2F8AE
:100E4000B034D1F8A813C2F8C014401C0328ECDB5E
:100E5000002101EB410204EB021301EB81020020AF
:100E600005EBC20202EB800CDCF8B4C303EB800795
:100E7000C7F8D0C4401C0A28F4DB491C0529E8DB6C
:100E8000D5F87C04C4F8B805D5F88004C4F8BC05CE
:100E9000D5F88404C4F8C005D5F88804C4F8C4059E
:100EA000D5F88C04C4F8C805D5F89004C4F8CC056E
:100EB000002E04BFD5F89404C4F8D00511D0012E3B
:100EC0000FD1D5F89804C4F8DC05D5F89C04C4F813
:100ED000E005D5F8A004C4F8E405D5F8A404C4F8E6
:100EE000E805D5F8A804C4F8EC05D5F8AC04C4F8B6
:100EF000F005D5F8B004C4F8F405002E04BFD5F809
:100F0000B404C4F8F805D5F8B804C4F80006D5F858
:100F1000BC04C4F80406002101EB810205EB820346
:100F2000002004EB820203EB800CDCF8C0C402EB6F
:100F30008007C7F808C6401C0528F4DB491C0229B5
:100F4000EADBD5F8E804C4F8400616B1012E7CD0DF
:100F500018E1D5F8EC04C4F84406D5F8F004C4F858
:100F60004806D5F8F404C4F84C06D5F8F804C4F8DB
:100F70005006D5F8FC04C4F85406D5F80005C4F8AA
:100F80005806D5F80405C4F87006002005EB80016A
:100F9000D1F8081504EB8002C2F87416401C03282F
:100FA000F4DBD5F81405C4F88006D5F81805C4F8A4
:100FB0008C06D5F81C05C4F890064FF0000C0CEB1D
:100FC0008C00002105EBC00804EBC007002008EBF3
:100FD000C10307EBC10203EB8009D9F8209502EBAE
:100FE000800ACAF89496401C0228F4DB491C0529A3
:100FF000ECDB0CF1010CBCF1020FE0DBD5F8700565
:10100000C4F8E406D5F87405C4F8E806D5F8780500
:10101000C4F8EC06D5F87C05C4F8F006002005EB12
:101020008001D1F8801504EB8002C2F8F416401C50
:101030000328F4DBD5F88805C4F8FC06D5F88C0540
:10104000C4F80007D5F8900500E03AE0C4F80407BA
:10105000D5F89405C4F80807D5F89805C4F80C0726
:10106000D5F89C05C4F81007D5F8E005C4F860076A
:10107000D5F80406C4F884070023002004EBC30756
:1010800005EBC30C0CEB8002D2F8A08507EB8001C6
:10109000C1F81487D2F8C085C1F83487D2F8E48546
:1010A000C1F86487D2F80886C1F89487D2F8282658
:1010B000C1F8B427401C0228E4DB5B1C042BDCDBFA
:1010C00060E0D5F8EC04C4F84406D5F8F004C4F8A0
:1010D0006C06002005EB8001D1F8F41404EB8002CB
:1010E000C2F87016401C0328F4DBD5F80005C4F8DC
:1010F0007C06D5F80405C4F88006D5F80805C4F8C0
:101100008406D5F80C05C4F88806D5F81005C4F88F
:101110000007002101EB410305EB8302002004EBF3
:10112000830302EB800CDCF814C503EB8007C7F8DF
:1011300004C7401C0328F4DB491C0229EADB002019
:1011400005EB8001D1F82C1504EB8002C2F81C17C6
:10115000401C0228F4DBD5F83405C4F82407D5F880
:101160003805C4F82807D5F83C05C4F83007D5F889
:101170004005C4F83407802205F2445104F5EA60C2
:1011800006F05DDD002E0CBFFD48FE48006830F023
:10119000FF0105D1D4F8901060F30301C4F890105A
:1011A000D4F8500320F00100C4F85003D4F86003D1
:1011B00020F00100C4F86003D4F8680320F00100B7
:1011C000C4F86803D4F8700320F00100C4F8700379
:1011D000BDE8F087EC49002008707047EA480078C5
:1011E0007047E94840787047E74988707047E6489B
:1011F00080787047E548D0F8500300F00100704750
:101200002DE9F04F860900F00F0242EA8611002511
:10121000DFF87CC38B09C1F301185CF8234002EBB3
:1012200042034FF4A07704EB831407EB881882B0D5
:1012300054F8084014F0010F0ED141F010018C0950
:10124000C1F301115CF8248007EB811108EB8314D2
:10125000615811F0010F63D05CF82640E16901F09C
:10126000080B04EB83110091D1F800114FF4927C2C
:101270000CEB831989B2C0F3011701230191BB4321
:1012800000211F015B4207EB031302EB420A03F14B
:10129000100842EA011343EA8613DFF8F4C2C3F3ED
:1012A000811E5CF82EC0C3F3011E4FF4A0730CEB3B
:1012B0008A1C03EB8E135CF8033013F0010F2CD063
:1012C00010F00F0F04BFD4F824319BB209D054F8AA
:1012D00009C001232CFA07FC03FA08F35B1E0CEA91
:1012E0000303DDF800C00CEB811CDCF844E1BBF12A
:1012F000000FCEF3080E1ABFDCF844C1CCF3023C59
:101300004FF0000CC3EB031303EB83032B440EFAE3
:101310000CF5DDF804C005FB0C35491C0229B8D3D7
:1013200002B02846BDE8F08F70B520B1012810D07A
:10133000022813D016E0002001F00FFD0446012022
:10134000FFF75EFF05460220FFF75AFF61190144CF
:1013500008E00120FFF754FF014603E00220FFF7F9
:101360004FFF01468B48A0FB0110C00870BD2DE95E
:10137000F047044605F060FB054611F0ADFE022D76
:1013800008BF02282FD105F067FC60B30CF0FDF810
:10139000602828D97E4900200C68D4F83C51D4F844
:1013A00000118EB201F0B4FC804605F004070CF089
:1013B000ECF87949B1FBF0F90220FFF7B5FF21699C
:1013C0004044626811440844A9EB00003FB1C5F3F2
:1013D0000741704A7143A2FB0121A0EB11106F4934
:1013E000A1FB0010C4086948C0F85443BDE8F08769
:1013F0006648D0F854037047634988607047624874
:10140000806870476049C86070475F48C06870472F
:1014100000F00F00624A801CA2FB00325208A2EBCF
:10142000820202445F4800EBC200026861F30902D5
:101430000260704700F00F005949801CA1FB002199
:101440004908A1EB81010844564951F83000C0F326
:10145000090070474D49D1F84C2360F30002C1F8F0
:101460004C2370474948D0F84C0300F00100704706
:101470004D480168444AC1F30021D170016821F44C
:10148000807101604149D1F84C0310F001001071E6
:1014900008BF70470020D1F84C2360F30002C1F868
:1014A0004C23704738494048CA78002A026814BF64
:1014B00042F4807222F4807202600879002808BF2A
:1014C00070470120314AD2F84C1360F30001C2F892
:1014D0004C1370472C49086170472DE9F05F0446B2
:1014E0000027384614F4803F18BF012014F4003F51
:1014F00018BF40F0040014F4802F18BF40F0020021
:1015000014F4002F18BF40F0100014F4001F18BF8F
:1015100040F0400014F4800F18BF40F0080014F4AD
:10152000000F18BF40F02000DFF87CA0DAF80010B0
:1015300011F0010F18BF40F08000DFF84C80DFF899
:101540004C9098F8021010EA0105D9F8400320F4F5
:101550008030C9F8400376D0D8F81060DAF800007F
:101560000027C0F3002088F80300DAF8000020F418
:101570008070CAF80000D9F84C0310F0010015E0A3
:10158000E0FE0400F0FE04000004012000500040D2
:10159000A01A0200B5814E1B40420F00CDCCCCCC2E
:1015A000ABAAAAAA645300400056004088F8040081
:1015B00006D0D9F84C13002060F30001C9F84C1391
:1015C000D9F8480340F00100C9F84803D9F84003AE
:1015D00040F48030C9F840034FF0630B17E004F08B
:1015E000FEF85846D9F8481311F0100F0BD0D9F86F
:1015F00044030005000D04D0FB49B1FBF0F0C8F82E
:101600000C00012703E0011EA0F10100EADC301EFE
:10161000A6F1010601DD002FE1D098F803000028B3
:10162000DAF8000014BF40F4807020F48070CAF82B
:10163000000098F8040030B1D9F84C13012060F391
:101640000001C9F84C13D9F8500320F00100C9F883
:101650005003D9F8600320F00100C9F86003D9F8FD
:10166000680320F00100C9F86803D9F8700320F07E
:101670000100C9F87003DD4B186820F00100186004
:10168000DB48016821F001010160DA490A6822F0B3
:1016900001020A600122EFB315F0010F05D0D9F85D
:1016A00050C34CF0010CC9F850C315F0040F05D01D
:1016B000D9F870C34CF0010CC9F870C315F0020FD3
:1016C00005D0D9F860C34CF0010CC9F860C315F01F
:1016D000100F05D0D9F868C34CF0010CC9F868C3E5
:1016E00015F0400F05D0D1F800C04CF0010CC1F846
:1016F00000C015F0080F03D0196841F0010119600E
:1017000015F0200F03D0016841F00101016088F855
:10171000015000E017E088F8002015F0160F0BD0FC
:10172000D9F87C0340F40030C9F87C03D9F8E8000C
:1017300020F40020C9F8E800D9F8400340F48030D4
:10174000C9F8400336E0DAF8000010F4807F06D0D4
:10175000D9F8E80040F40020C9F8E8000AE0D9F818
:10176000600020F4F810C9F86000A348016821F473
:10177000F8110160002088F801009DB1022188F86D
:101780000010D9F8401341F48031C9F84013D9F85A
:10179000481341F00101C9F84813C9F88C03C9F88E
:1017A0008C2307E0D9F8401321F48031C9F84013A5
:1017B00088F80000D9F83C0114F0010F20F00D006A
:1017C00018BF40F0010014F0040F18BF40F00400EF
:1017D00014F0020F18BF40F00800C9F83C01D9F816
:1017E000000214F0100F14BF40F0010020F00100BF
:1017F000C9F80002D9F8400214F0200F14BF40F0DD
:10180000010020F00100C9F84002D9F8C00214F02C
:10181000400F14BF40F0010020F00100C9F8C002E1
:10182000D9F8000314F0800F14BF40F0010020F03D
:101830000100C9F80003714814F4805F016814BF07
:1018400041F0010121F0010101606D4814F4005FD5
:10185000016814BF41F0010121F0010101606948F4
:1018600014F4804F016814BF41F0010121F001011F
:101870000160654814F4004F016814BF41F0010194
:1018800021F0010101606149086814F4807F20F0B3
:101890000D0018BF40F0010014F4806F18BF40F035
:1018A000040014F4007F18BF40F008000860BDE891
:1018B000F09F57484068C0F30E007047B0F5004FE6
:1018C00028BF47F6FF7052494A6860F30E024A602B
:1018D00070474F49D1F85C2360F30302C1F85C23E1
:1018E00070472DE9F0414A4D0646286810F07F0404
:1018F00008BF0124002001F030FA07460120FFF75D
:101900007FFC80460220FFF77BFC07EB0801414B80
:101910000144002E18BF002921D0D5F85003002221
:1019200010F0010F07D0D5F85CC3012060F3030C61
:10193000C5F85CC304E0B3FBF6F0884288BF421AE6
:10194000C4EB041000EB8000B2FBF0F0B0F5004FE8
:1019500028BF47F6FF706A6860F30E026A60686825
:10196000C0F30E006043C0EB001000EB80000844A1
:10197000B3FBF0F0BDE8F0812548D0F85C0300F03F
:101980000F0070472DE9F041214D0024D5F8500398
:1019900010F0010F08D020488168D5F85C0300F0F2
:1019A0000F00484304011CE0002001F0D6F9064670
:1019B0000120FFF725FC07460220FFF721FCF11963
:1019C0000144286800F07F026868C0F30E005043AD
:1019D000C0EB001000EB800040181CBF0D49B1FBAC
:1019E000F0F42046BDE8F081C0687804605B0040F8
:1019F000685B0040705B004060580040005A004047
:101A0000405A0040C05A0040005B0040405900402E
:101A100000500040008C8647000401208109F94AEB
:101A200000F00F0000EB400052F821104FF48072DC
:101A300002EB80100858F44980B2B1FBF0F0401C72
:101A4000400870472DE9F003DFF8B8C38309ED4C77
:101A500085095CF8233000F00F0C54F825400CEB9E
:101A60004C0C00F00F0804EB8C1C002904BFDCF8C0
:101A7000001189B2002A04BFDCF80021120CD3F84F
:101A8000804004F00F05D3F88040C4F30314E41C35
:101A90006C436400B8F1000F18D0D3F8005615F06D
:101AA000010F2DD000F00F05C0F3011606EB450520
:101AB000D64E755DD3F804666D1CAD0026FA05F5AB
:101AC00015F0010F18BF01261AD01AE0D3F8B85547
:101AD000D3F8006605F0010516F0010F1DBFD3F81D
:101AE000046616F0010F0126002635431DBFD3F80A
:101AF0000451AFB20D1BA2F10F0708BF3D1B04E05C
:101B00000026DCF80451AFB20D1B541E002E18BF86
:101B1000A5EB540525F00105B5F5004F28BF47F6A4
:101B2000FE75DCF8009161F30F09CCF80091DCF848
:101B3000001162F31F41CCF80011DCF8041167F3C7
:101B40000F01CCF80411DCF8181165F30F01CCF883
:101B50001811E6B1B8F1000F1DD003EBC801D1F8A0
:101B6000002664F30F02C1F80026D1F8042664F3BE
:101B70000F02C1F80426D1F8142664F30F02C1F84D
:101B80001426D1F8182664F30F02C1F81826BDE810
:101B9000F00301F02CB9D3F8181664F30F01C3F861
:101BA0001816D3F82C1664F30F01C3F82C16EEE7C1
:101BB000034610B5944831B1B0FBF1F1491C490816
:101BC000B1F5803F02D34FF6FF7102E0202938BF04
:101BD0002021B0FBF1F0401C44084A081846FFF7EA
:101BE00031FF204610BD10B48309864C10F00F0F52
:101BF00000F00F0054F8233000EB40004FF48074E5
:101C000004EB801018584FEA10401CBF10BC7047FE
:101C1000D3F880C00CF00704D3F880C0401AD3F882
:101C20000411CCF3031C60F30F01C3F80411012A63
:101C30001CBF10BC70470CF103016143A0EB4100D5
:101C4000D3F8181120F0010060F30F01C3F8181148
:101C500010BC704781096B4A00F00F0000EB400098
:101C600052F821104FF4807202EB80100858000CDB
:101C700070470A460021E5E6002804BF6448D0F812
:101C8000400110D05F4A810952F8212000F00F0175
:101C900001EB410102EB8111C0F301104FF4A2727C
:101CA00002EB80100858C0F30A007047F0B4554AA0
:101CB0004FEA901C00F00F0452F82C2004EB44056E
:101CC00002EB8515C0F30113D5F81C618E1BB61EFF
:101CD000002807BF4E4DD5F8407105EB8315D5F8A8
:101CE000447161F30A070CBFC5F84071C5F844712F
:101CF00044EA031141EA8C1101F00F03C1F3011111
:101D000001EB4301434B02F5C072595C4B08C90714
:101D100052F823C0C90E4FF6FF748C402CEA040C15
:101D2000B4B204FA01F14CEA010142F82310F0BC0C
:101D300001F05DB8334B810900F00F0253F8211018
:101D4000C0F3011CCB6902EB420201EB821203F0EB
:101D50001003D2F828110028C1F3080107BF2C484E
:101D6000D0F8400102EB8C10D0F84401C0F30A0017
:101D7000002B08BF0021401A0004000C08BF0120FE
:101D8000704703091B0203EB810101F1005101F1CE
:101D900081510007C00E0B6802FA00F0184308607A
:101DA00070470209120202EB810101F1005101F1B9
:101DB000815100070968C00E21FA00F000F003000D
:101DC000704770B40A68E0B10E4C830900F00F0C44
:101DD00054F823500CEB4C0CC0F301104FF4AA76CE
:101DE00005EB8C1506EB8016AA5154F823204FF40E
:101DF000AC7302EB8C1203EB80104968115070BC7D
:101E0000704709E0A01A0200F04902008C1A020093
:101E100000500040801A0200FE48C0F85021496876
:101E2000C0F85411EBE730B4F0B1DFF8ECC382092D
:101E300000F00F035CF8224003EB4303C0F30110F2
:101E40004FF4AA7504EB831405EB801564590C60FC
:101E50005CF8222002EB83124FF4AC7303EB80108A
:101E60001058486030BC7047EA48D0F850210A60EA
:101E7000D0F85401F5E710B483B068B3E64982099D
:101E800051F8222000F00F0101EB410102EB81111A
:101E9000C0F301104FF4AA7202EB80128A5800922C
:101EA0004FF4AC7202EB80100858019000200146FC
:101EB0006A4601234FEA511C01F01F0452F82CC05E
:101EC00003FA04F41CEA040F18BF401C491C28291B
:101ED000F0D303B010BC7047CE48D0F85011009139
:101EE000D0F85401E1E730B4002210F00F0F06D013
:101EF00000F00F02C0F3011303EB4202521EC64B67
:101F000080094FF4866553F8204005EBC205D1F8EF
:101F100000C044F805C053F8200040F2344303EBFE
:101F2000C2024968815030BC704710B4002210F0E2
:101F30000F0F06D000F00F02C0F3011303EB4202B3
:101F4000521EB54B80094FF4866453F820C004EB51
:101F5000C2045CF804C0C1F800C053F8200040F28D
:101F6000344303EBC2028058486010BC7047A94854
:101F7000C06870470021A84A830952F82320D3691A
:101F800013F0080F14D0002804BFA248D0F8400175
:101F90000CD000F00F0101EB410102EB8111C0F305
:101FA00001104FF4A27202EB80100858C0F3023106
:101FB00008467047DFF860C210B482095CF822302E
:101FC000DC6944F00804DC6198B15CF8223000F070
:101FD0000F0202EB420203EB8212C0F301134FF433
:101FE000A27000EB8310135861F30E33135010BC32
:101FF00070478848D0F8402161F30E32C0F8402184
:1020000010BC70470021844A830952F82320D36909
:1020100013F0080F14D0002804BF7E48D0F8440104
:102020000CD000F00F0101EB410102EB8111C0F374
:1020300001104FF4A47202EB80100858C0F3024163
:1020400008467047A0B1744A830952F8233000F063
:102050000F0202EB420203EB8212C0F301134FF4B2
:10206000A47000EB8310135861F3124313507047B0
:102070006848D0F8442161F31242C0F84421704707
:10208000654A8009002952F82000816914BF41F097
:10209000080121F00801816170475F49800951F80A
:1020A00020008069C0F3C00070475B4A80090029A6
:1020B00052F82000816914BF41F0020121F00201B1
:1020C000816170475449800951F820008069C0F34C
:1020D00040007047002802BF4E48C0F84C117047BE
:1020E00082094D4B53F8223000F00F0202EB4202FE
:1020F00003EB8212C0F301104FF4A87303EB8010BE
:1021000011507047002802BF4248D0F84C01704778
:102110008109414A52F8212000F00F0101EB4101F1
:1021200002EB8111C0F301104FF4A87202EB801092
:102130000858704770B40A68E0B1374C830900F062
:102140000F0C54F823500CEB4C0CC0F301104FF45F
:10215000A87605EB8C1506EB8016AA5154F82320BF
:102160004FF4A67302EB8C1203EB801049681150F8
:1021700070BC70472748C0F84C214968C0F8481126
:1021800070BC704730B4F0B1DFF88CC0820900F049
:102190000F035CF8224003EB4303C0F301104FF43C
:1021A000A87504EB831405EB801564590C605CF88A
:1021B000222002EB83124FF4A67303EB8010105819
:1021C000486030BC70471348D0F84C210A60D0F802
:1021D0004801F5E72DE9F04101F075F90D4BD3F811
:1021E0003C1111F0010F18BF10F0010F0BD0D3F804
:1021F0004C11D3F840210029C2F302321EBF002A3D
:10220000C943C3F84C114FF0010C6746002107FA8F
:102210000CF203E000500040A01A020002EA00069F
:102220000CEB4C02950105EB811202F1804202F5A4
:10223000A042D2F8403113F0010F18BF002E0BD08E
:10224000D2F85031D2F84441002BC4F302341EBFFF
:10225000002CDB43C2F85031491C0229E3D30CF1B6
:10226000010CBCF1030FD1D3BDE8F0810021FF4A7E
:10227000830952F82320D36913F0080F14D00028E3
:1022800004BFFB48D0F844010CD000F00F0101EB73
:10229000410102EB8111C0F301104FF4A47202EB73
:1022A00080100858C0F3005108467047012070475D
:1022B0002DE9F00FC0F30117DDE90885DDF828905E
:1022C00000F00F06002808BFDFF8A8C30DD0E74CC8
:1022D0004FEA901C54F82CC006EB46040CEB841C0F
:1022E0004FF4B07404EB8714A444B9F1000F14BF89
:1022F0004FF0010A4FF0000A022D16BF5FEA0504F5
:102300004FF0010B4FF0000BDCF8044061F35C640C
:1023100081096BF31864002904BF63F3CA1462F3E4
:10232000C60465F342046AF30004CCF8044071D09B
:102330004FF00104B4EB901F1CBFBDE8F00F7047D5
:10234000B9F1000FDCF8080014BF40F0800020F065
:102350008000CCF8080007EB4600C749DFF81CC333
:10236000095C1CF8009006EB4600800100EB87102A
:1023700000F1804000F5A040D0F854590020CE076D
:10238000F60EC8F30A0740F2FF7C0CFA06FC4FEA8F
:10239000890807FA06F602F00F024FF00F0A03F061
:1023A0000F0302FA08F703FA08F30AFA08F24FEAF1
:1023B000510804FA00F1294225D000EB40018900C0
:1023C00001EB880101F1804101F5A041D1F8809C29
:1023D00029EA0C0949EA0609C1F8809C810001F14B
:1023E000804101F5A041D1F8BC9C29EA020949EAE3
:1023F0000309C1F8BC9CD1F8D09C29EA020949EA3A
:102400000709C1F8D09C401C0428D2D3BDE8F00FC6
:102410007047FFE7DCF8080068F31A40CCF80800C2
:10242000DCF80800B9F1000F14BF40F0100020F0F4
:102430001000CCF80800BDE8F00F70472DE9F84F08
:10244000C0F30118DDE90A46DDF8309000F00F070F
:10245000002808BFDFF81CC20DD0844D4FEA901C45
:1024600055F82CC007EB47050CEB851C4FF4B075F5
:1024700005EB8815AC44B9F1000F14BF4FF0010A09
:102480004FF0000A022E16BF5FEA06054FF0010B5F
:102490004FF0000BDCF8045061F35C6581096BF3CD
:1024A0001865002906D1197892F800B061F3CA15B1
:1024B0006BF3C60566F342056AF30005CCF80450D9
:1024C00013D12088DCF8081060F31A41CCF808100A
:1024D000DCF80800B9F1000F14BF40F0100020F044
:1024E0001000CCF80800BDE8F88F0125B5EB901F6F
:1024F00018BFBDE8F88FB9F1000FDCF8080014BF71
:1025000040F0800020F08000CCF8080008EB470085
:102510005949DFF868C1095C1CF800C007EB4700A7
:10252000800100EB881000F1804000F5A040D0F859
:102530005409CE074FEAD66A009040F2FF7500209A
:1025400005FA0AF90F264FEA8C0506FA05FC4FEA50
:102550005108012101FA00F600990E4234D000EB37
:102560004001890001EB880101F1804101F5A041A2
:1025700012F8046B13F8047B34F804BBD1F880EC38
:10258000CBF30A0B2EEA090E0BFA0AFB4EEA0B0BF1
:10259000C1F880BC810001F1804101F5A041D1F872
:1025A000BCBC07F00F072BEA0C0BAF404BEA070748
:1025B000C1F8BC7CD1F8D07C06F00F0627EA0C07E6
:1025C000AE403E43C1F8D06C401C0428C1D3BDE8E6
:1025D000F88F2DE9F04FC0F30116DDE90A98DDF818
:1025E00024C000F00F05002808BF224F0CD01F4F59
:1025F000840957F8244005EB450704EB87144FF492
:10260000B07707EB861727447C680029C4F3436E34
:10261000C4F3410B04F0010A18BFC1F800E0B9F19E
:10262000000F18BFC9F800B0B8F1000F18BFC8F804
:1026300000A081095DD00127B7EB901F18BFBDE84E
:10264000F08F06EB45000C490C4C095C245C05EB53
:102650004500800100EB861000F1804000F5A040AD
:10266000D0F854A900204FEA510909E0A01A02004D
:102670000050004058510040861A02008C1A020097
:10268000C9074FEAD168A40007FA00F111EA0A0F5E
:102690002AD000EB4001890001EB890101F1804162
:1026A00001F5A041D1F8801C21FA08F1C1F30A0517
:1026B000810001F1804101F5A041D1F8BC6CD1F855
:1026C000D01CE64006F00F06E14001F00F01002AA1
:1026D00018BF42F8041B002B18BF43F8046BBCF171
:1026E000000F18BF4CF8045B401C0428CCD3BDE895
:1026F000F08FB868002AC0F30A41C4F3C310C4F3D2
:10270000C30418BF1460002B18BF1860BCF1000F81
:1027100018BFCCF80010BDE8F08F8009FA4A0029F4
:1027200052F82000C16914BF41F0200121F02001BE
:10273000C1617047F449800951F82000C069C0F3B5
:102740004010704770B400F00F0C0CEB4C024FEAD5
:102750008212C0F3011402EB841202F18042830959
:1027600002F5A04231D00123B3EB901F1CBF70BC17
:10277000704704EB4C00D2F85459DFF890C31CF8B2
:10278000004000204FEA847C3F224FEADC6C02FAD2
:102790000CF201F03F0101FA0CFC24F0030403FAEF
:1027A00000F129420CD004EBC00101F1804101F598
:1027B000A041D1F8E46C964346EA0C06C1F8E46CFB
:1027C000401C0428EBD370BC704738B1D2F86C01C0
:1027D00061F31540C2F86C0170BC7047CC48D0F86A
:1027E000642161F31542C0F8642170BC704781090F
:1027F0001CBF00207047002804BFC548D0F8640102
:102800000ED000F00F0101EB41018901C0F301106E
:1028100001EB801000F1804000F5A040D0F86C0181
:10282000C0F3054070472DE9F0010126B6EB901F7B
:102830001CBFBDE8F001704700F00F03C0F30110AA
:1028400000EB430203EB43039B0103EB8010DFF833
:10285000BCC200F1804000F5A0401CF80220D0F876
:1028600054794FEA827C00204FEADC653F2303FA6B
:1028700005F422F0030C06FA00F23A4212D00CEBF7
:10288000C00202F1804202F5A04211F8043BD2F8E6
:10289000E48C03F03F0328EA0408AB4048EA030352
:1028A000C2F8E43C401C0428E5D3BDE8F0017047C1
:1028B0000123B3EB901F18BF704730B400F00F0C2A
:1028C000C0F3011000EB4C020CEB4C0C4FEA8C1CDB
:1028D0000CEB80108D4C00F1804000F5A040A25C14
:1028E000D0F8545922F0030C00209207D40E03FABA
:1028F00000F22A420CD00CEBC00202F1804202F539
:10290000A042D2F8E42CE24002F03F0241F8042B4E
:10291000401C0428EBD330BC704730B47A4BC0F372
:10292000011400F00F05A3F1080C04EB450401228B
:102930001CF804C002FA0CF28009002953F82000A8
:10294000D0F8101414BF11439143C0F8101430BCD8
:10295000704700F00F02C0F3011303EB42026D4B0E
:10296000002180099A5C083353F82000D0F8100445
:10297000012303FA02F2104218BF012108467047F2
:1029800070B410F0300F0CBF012300238609DFF86C
:1029900078C100F00F024FEA90104FF49A7502EBE5
:1029A00042025CF820004FF0010405EB821214D0C3
:1029B00085584FEA830C5B420CEB83031B1D04FA22
:1029C00003F35B1E03FA0CF4194025EA040401FA30
:1029D0000CF12143815070BC70470029815804FAE2
:1029E00003F31ABF194381509943F3D070BC704769
:1029F00030B410F0300F0CBF0121002184094FEAE0
:102A00009013414D00F00F0000EB40004FF49A721C
:102A100002EB801255F823004FF0010C0CD08258C5
:102A20008800C240494200EB8100001D0CFA00F012
:102A3000401E30BC1040704780580CFA01F108402D
:102A400018BF012030BC70472F4B800953F820C0BD
:102A5000CCF8741053F820C01168CCF8781053F8F3
:102A600020005168C167704729490028D1F8AC009F
:102A700014BF40F0020020F00200C1F8AC00704723
:102A800023490028D1F8AC0014BF40F0010020F029
:102A90000100C1F8AC0070471D48D0F8E0001E49A5
:102AA0000968084370471A49C1F8E4001B490860E7
:102AB00070471748D0F898001949096840EA410062
:102AC000704770B44FEA0075860900F00F044FEAB2
:102AD000D565C0F30110A5F1020502F0010C054413
:102AE0004FEA8C434FEA52001CD074B32A0102EB28
:102AF0008C4202EBC10101EB800000F1405000F577
:102B0000C010806C70BC7047A01A0200921A0200BC
:102B100000500040981A0200E0580040E45800407D
:102B20009858004001EB810184B105EB8502520108
:102B300002EB8C4202EB011101EB800000F14050EE
:102B400000F58010D0F8500FDCE708E003EB01112E
:102B500001EB800000F1405000F5801007E003EB2E
:102B6000C10101EB800000F1405000F5C010006889
:102B7000C8E7F0B44FEA0076870900F00F044FEA87
:102B8000D666C0F30110A6F1020602F00105064464
:102B90004FEA854C4FEA52000ED054B3320102EB9B
:102BA000854202EBC10101EB800000F1405000F5CD
:102BB000C0108364F0BC704701EB810184B106EB67
:102BC0008602520102EB854202EB011101EB80000B
:102BD00000F1405000F58010C0F8503FF0BC704745
:102BE0000CEB011101EB800000F1405000F580106A
:102BF00007E00CEBC10101EB800000F1405000F553
:102C0000C0100360F0BC7047830900F00F02C0F3EE
:102C100001100CD0002A08BF9D4805D0012A17D00A
:102C200000280CBF9B489C4800EB81407047002A5D
:102C300008BF4FF04050F7D0012A04D000280CBF45
:102C400096489748F0E7002814BF96489648EBE767
:102C5000002814BF95489648E6E710B44FEA007C78
:102C6000840900F00F034FEADC6CC0F30110ACF1F3
:102C7000020C60440CD0002B08BF8E4817D0000116
:102C800000EB81408C4900EBC20010BC0844704747
:102C9000002B08BF89480AD000EB8000400100EB00
:102CA000814002EB820100EB01108549EDE710BC89
:102CB00000EB814070474000801C7047022826BF0F
:102CC0004008401E0020704740F6C411401C484395
:102CD000704740F6C411884226BFB0FBF1F0401E99
:102CE0000020704700EB4001C1EBC0104FF4C81149
:102CF00000F5FA70B1FBF0F070474FF44811B1FBEA
:102D0000F0F07049A0F26B30A1FB00100009704791
:102D100010F00F01C0F301126B4B4FEA901053F803
:102D2000200002BFD0F8240180B2704701EB4101BE
:102D30004FF4927303EB811150F801C0012323EA91
:102D4000020001012CFA01F2404201EB00101030A8
:102D500003FA00F0401E104070472DE9F0470600CE
:102D600059494FEA96104FF0000751F820400CBF28
:102D7000D4F83C51D4F8405115F0010F34D005F08F
:102D8000040905F008083046FFF7C2FF0146D4F8F1
:102D90000001002E83B20CBFD4F84001D4F84401E6
:102DA000C0F3080CB9F1000F18BFC5F30747E0697D
:102DB00010F00802C5F3052007D0002E0CBFD4F890
:102DC0004021D4F84421C2F30232B8F1000F18BFF9
:102DD000401C0CFA02F200FB027000FB03F2C1EB94
:102DE000011000EB800087183846BDE8F0872DE918
:102DF000F0074FEA901C00F00F04334804EB440145
:102E000050F82C0000F5C07300EB8110D0F80001E1
:102E100040F2DC5280B2B2FBF0F100FB112000283E
:102E200018BF01200D18294F00204FF6FF7644EA05
:102E3000001141EA8C1101F00F02C1F3011101EB05
:102E40004201795C4A08C90753F82280C90E03EB96
:102E5000820228FA01F8D2F80CA0A8EB050906FABC
:102E600001F81FFA89F92AEA080A09FA01F14AEA7F
:102E70000109C2F80C90D2F8189029EA080848EA2B
:102E800001019161401C0228D1D3BDE8F0077047D1
:102E90000000083048050830C807083050280030C6
:102EA0005032003050140030500A0030C802083050
:102EB000480008300000183048001830000010307A
:102EC000500F1030D34D6210A01A0200801A020079
:102ED000FDF773BD10B5FDF770FD012818BF10BDDB
:102EE0000020FDF764FD21210020FDF76CFD21216C
:102EF000BDE810400120FDF766BD10B5FDF756FD99
:102F0000FDF75BFD01280AD10020FDF750FD2121CE
:102F10000020FDF758FD21210120FDF754FD01217E
:102F2000052001F060FD0121052001F05CFDFF4955
:102F30000020487110BD10B54FF4066001F0ACFDE3
:102F4000BDE810404FF4066001F097BDF74A014616
:102F5000D078002818BF0120002918BF0121D170A6
:102F6000002111717047F14A516A5062084670475A
:102F7000EE490020887048707047EC490020887046
:102F800048700871704770B50007C00E801E00EBD6
:102F90008004E7480D4600EB44104FF4A07204F0A3
:102FA0004EDEE44805F5A07100EB4410BDE870402A
:102FB0004FF4A07204F0439EDFF87CC348B14A424C
:102FC0004FF4806300EB810103EB8202604604F062
:102FD000369E4FF48061604604F08D9E2DE9F041ED
:102FE00006460020FDF736FDD44DD54F0446DEB130
:102FF00004EB8400020190463146284604F01FDEAF
:10300000424606F5F061384604F019DE04EB84040C
:1030100005EB0410502104F06EDE07EB0410BDE850
:10302000F041502104F0679E401C00EB800001013C
:103030000C46284604F05FDE21463846BDE8F041E4
:1030400004F0599E10B5B94C4FF040210346E061A1
:103050000A6910F0FF0F14BF42F0030222F00302CE
:103060000A6110F47F4F086914BF40F0300020F06F
:10307000300008611846FEF730FAFEF7AFF86169D4
:103080006269C1F307216FF30F1262616369C2B213
:1030900043EA02226261022803D1626942F001021E
:1030A000626181421ABFA269002A10BD012918BFBE
:1030B0000021012818BF0020814208BF10BD6169AE
:1030C00041F008016161BDE8104010474FF0402118
:1030D000886940F002008861086940F0400008619A
:1030E0009248C06910F0FF0F03D00A6942F0030252
:1030F0000A6110F47F4F03D0086940F03000086186
:1031000000F09FBE2DE9F0474FF040230546986937
:103110000C4640F002009861186940F040001861C8
:10312000824FFA6912F0FF0F03D0186940F00300D4
:10313000186112F47F4F03D0186940F03000186115
:1031400000F07FFE4FF00008002C7DD00020FDF73E
:103150002EFC00202168FDF71AFD40206168FDF774
:1031600016FD2846FFF76EFF0020FDF7B7FC01268D
:10317000002838D0A068FFF731FF6F48636953B16A
:10318000E1694FF4806C4A420CEB820203EB81014F
:1031900004F055DD1AE06B4D4FF4806104F0ABDDB7
:1031A0000020295600290EDB0A09120202EB8002D8
:1031B00002F1005202F181520907C90E136806FAA2
:1031C00001F119431160401C2828EAD3D4E90631E3
:1031D0005D4893B14A424FF4007C0CEB820203EB52
:1031E000810104F02CDDE06870B30120FDF776FC6E
:1031F000DFF83C914F4E28B108E04FF4007104F025
:103200007ADDF0E71120FDF769FC68B1E568484612
:103210004FF4A072294604F012DD30464FF4A0723C
:1032200005F5A07104F00BDD0220FDF757FC18B97D
:103230001220FDF753FC38B1E46844484FF4A07203
:10324000214604F0FCDC00E006E041484FF4A072A7
:1032500004F5A07104F0F3DC87F8028087F80180A0
:1032600087F80480C7F82480F8780020F87087F881
:1032700004804FF4066001F00FFCBDE8F0474FF406
:10328000066001F0FABB10B50020FDF790FB00F0DE
:10329000C8FD2648806B002808BF10BD4FF04020B5
:1032A000016921F003010161016921F0300101612F
:1032B000016921F040010161816921F00201816110
:1032C00010BD4FF4066001F0DDBB10B54FF4066091
:1032D00001F0D8FBFDF771FB01280AD10020FDF7B2
:1032E00066FB21210020FDF76EFB21210120FDF767
:1032F0006AFB1848D0F8401321F48031C0F840131D
:103300000020FDF754FB00F08CFD0848806B00287E
:1033100008BF10BD4FF04020016921F00301016199
:10332000016921F030010161016915E014040120F7
:10333000500F1030500F14300000203000001030BB
:1033400000001430BC09012000002430901010301F
:10335000901014300050004021F04001016181695B
:1033600021F00201816110BD10B501F090FB10F059
:10337000600018BF012010BDFE4A916990610846A7
:103380007047FC48C0697047FA484069704772B698
:10339000F8494A6922EA0000486162B67047F54878
:1033A0000078002818BF0120704770B5FDF705FBB5
:1033B000002818BF70BD0024EE4DAC706C70212148
:1033C0002046FDF700FB21210120FDF7FCFA2C70BF
:1033D000BDE870400120FDF7EABA70B50446FDF77C
:1033E000ECFA002818BF70BD0021E24DA970697089
:1033F00021210020FDF7E7FA21210120FDF7E3FA62
:10340000022C3CBF0120FDF7EEFA012028702C624F
:10341000BDE87040FDF7CBBA10B5FDF7CEFA002835
:1034200018BF10BD0020D34CA07060702121FDF7A3
:10343000CAFA21210120FDF7C6FA0120FDF7D3FACF
:10344000012020702062BDE81040FDF7B0BA0020D6
:10345000FDF7ADBA10B5C74C0020A07060702121F7
:10346000FDF7B1FA21210120FDF7ADFA20780028FF
:103470001CBF0120FDF7B7FA0120BDE81040FDF7A1
:1034800096BABC4988627047BA48C06A7047B94961
:1034900008637047B748006B7047B64A00F00F00EA
:1034A000116B21F00F01084310637047B148006BA6
:1034B00010F0800F14BFC0F3021000F00F0070472F
:1034C000AC4948637047AB48406B704770B5A94C36
:1034D0000546A06A411C04F14400A16240F8251091
:1034E000226B12F0800F14BFC2F3021202F00F021F
:1034F0003AB1B1FBF2F002FB1010002808BFFEF752
:1035000069FE207850B1206A10B1206A401E206206
:10351000206A002804BF0020FDF749FA2021284630
:10352000FDF751FA616A00291CBF28468847FDF75C
:1035300055FE02280ED19048D0F88C1311F0010FDF
:103540001CBFD0F88C0330F00F0003D0606940F04E
:10355000020060618948016841F02001016070BD8E
:103560000020B3E70120B1E710B5FFF795FA044654
:1035700010F4002F06D08048D0F87C1321F40031DD
:10358000C0F87C132046FFF78EFA7D48044208BF3E
:1035900010BD7848416941F0040141610E2101EA02
:1035A000D43104F001020A43416962F31F414161D1
:1035B0007248016841F02001016010BD002818BF69
:1035C00001206C49886370476E4870476E487047A9
:1035D0006848C06B70476748006C70476548006C6E
:1035E00070472DE9F04F674F4FF0000C8DB007F199
:1035F0005009E3464FF0FF3A07F80CA009F80CB069
:103600000CF1010CBCF1280FF6DB4FF0000C002888
:1036100007DD12F80C4007F80C400CF1010C604576
:10362000F7DC00220124CDF804B0E846CDF800B064
:10363000002816DD17F902C0BCF1000F0EDB0CF1FB
:103640000A06282E0AD24FEA561C06F01F0658F822
:103650002C5004FA06F6354348F82C50521C82428E
:10366000E8DB0022944602AD560902F01F0E58F81E
:10367000266004FA0EFE16EA0E0F1ABF05F802C005
:103680000CF1010C05F802A0521C282AECDB0022E8
:10369000002812DD17F902C0BCF1000F0ADB0CF1A3
:1036A0000A0CBCF1280F3ABF15F80CC009F802C08B
:1036B00009F802A0521C8242ECDB2E4E00220028A8
:1036C000C6F83CB009DD19F902C0944502D0C6F82D
:1036D0003C9002E0521C8242F5DBDFF8ACC00020D7
:1036E0000CF150070CF800A007F800B0401C282887
:1036F000F8DB0020002905DD1A5C0CF80020401CD6
:103700008142F9DC0020CDF804B0CDF800B00029EA
:1037100013DD1CF90020002A0CDB282A0AD25309E9
:1037200002F01F0258F8239004FA02F249EA02025A
:1037300048F82320401C8842EBDB00200246430966
:1037400000F01F0958F8233004FA09F913EA090FA9
:103750001ABF2A54521C05F800A0401C2828EEDB92
:103760000020002918DD1CF90020002A11DB282A7E
:103770000CE000001404012000500040640401200B
:1037800001003F00BC090120E40901203CBFAA5C04
:103790003A54401C8842E6DB0020C6F840B00029BD
:1037A000DCBF0DB0BDE8F08F3A56824203D03764DB
:1037B0000DB0BDE8F08F401C8842F5DB0DB0BDE8D0
:1037C000F08F00EB4001C1EBC010FE4901EB00108F
:1037D0007047FD49C0EB401001EB80007047DFF8F7
:1037E000ECC3012B8CF806008CF8071003D9401CA1
:1037F00020F0010011468CF808008CF8091000FB3D
:1038000001F24FF6FF7101EA4202ACF8102001EA22
:103810004000ACF812007047EC48407A7047EB4823
:10382000007A7047E94A9072D1727047E748C07ACF
:103830007047E648807A7047E54A107051707047CB
:10384000E349085C70472DE9F047DFF880930446B0
:1038500099F80300002804BF99F8010004F053DB35
:1038600099F80400002808BFBDE8F0870027D9F8C0
:103870001C003E463D46B84610F0070F1CBFD14F16
:1038800010F0020F05D0B9F81010CE4A21F0010156
:103890008E1810F0F00F18BFCB4DD9F82C00206017
:1038A000FEF770F80830C0F30710A060FDF799FC30
:1038B00010F0010F06D0FEF75FF8022828BF99F834
:1038C000020000D20020C4F81880E7606060C4E9FC
:1038D00004650120BDE8F087BC49002008717047ED
:1038E00070B505460020FDF7B5F800EB8000020139
:1038F0001446B849284604F0A2D9224605F5F060DE
:10390000BDE87040B44904F09A99F0B583B0002046
:10391000FDF7A0F8044669460020FEF784FA00226D
:10392000002C28D96E464FF0010C4FF6F07500219F
:1039300002EB82004B0901F01F0756F823300CFA06
:1039400007F73B4211D0CB075B0B03EB00134F088B
:1039500003EB870303F1405303F580131B889BB2ED
:10396000AB4202D903B00020F0BD491C2829E1D3A5
:10397000521CA242DBD303B00120F0BD70B500079A
:10398000C00E801E00EB800494480D4600EB4411ED
:103990004FF4A072284604F052D991484FF4A07217
:1039A00000EB441105F5A070BDE8704004F04799A4
:1039B0002DE9F04F07460007C00E83B0801E00259A
:1039C00027F03F0BE9464FF001084FF6F0760290E2
:1039D000384665F31F1040EA0B0000F0FF0A50461E
:1039E000FDF77CF800283CD05046FEF7C3FA08FAF1
:1039F00000F4022C88BF022469465046FEF713FAF1
:103A00000022002C2DD90298284400EB80004FEAB8
:103A1000401A002102EB820C480901F01F0359F8FB
:103A2000200008FA03F3184215D001F001000AEB58
:103A3000804000EB0C104B0800EB830000F140507D
:103A400000F58010B0F8500F80B2B04203D903B037
:103A50000020BDE8F08F491C2829DDD3521CA2426A
:103A6000D7D36D1C022DB3D303B00120BDE8F08F76
:103A70002DE9F0410025554C00280E4645D000F0B8
:103A80000F01C0F3011001290EBF00210229BDE87A
:103A9000F081022828BFBDE8F0810F18FCF78DFFE8
:103AA0005FEA00081CBF0020FCF781FF002307EB42
:103AB00087004FEA401C002203EB830702F001005D
:103AC0000CEB8040510800EB071000EB810000F187
:103AD000405000F58010521CC0F8506F282AEDD3DA
:103AE0005B1C022BE7D3B8F1000F08BFBDE8F081E3
:103AF000A570657021210020FCF765FF21210120C0
:103B0000FCF761FF207890B32EE0FCF756FF5FEAE8
:103B100000081CBF0020FCF74AFF0023002203EB33
:103B2000830CD007400B510800EB0C1000EB810711
:103B300007F1405707F58017521C3E60282AF0D342
:103B40005B1C312BEAD3B8F1000F08BFBDE8F08150
:103B5000A570657021210020FCF735FF212101208F
:103B6000FCF731FF207810B10120FCF73CFFBDE8E5
:103B7000F0410120FCF71BBF10B5FEF7DBF813493D
:103B8000C88110BD114B10B4E02101EA102CDB8973
:103B9000C1B2C0F30422994288BF1946642461432C
:103BA000B1FBF3F102EBC20303EB021201EB820162
:103BB0004FF47A720B4B0CFB02F2A3FB0232920819
:103BC000521C11E0989A012068A2012014040120DF
:103BD000200401200000103000001430500F10307D
:103BE000500F1430ABAAAAAA520810F4803F08BFA5
:103BF000494210F4003F14BF8818881A00B210BC64
:103C0000704710B5334C4FF48061334804F073D8DB
:103C1000002001232156002910DB0A09120202EBC1
:103C2000800202F1005202F181520907C90ED2F856
:103C300000C003FA01F14CEA01011160401C282880
:103C4000E8D310BD10B5234C4FF48061224804F036
:103C500052D8002001232156002910DB0A09120244
:103C600002EB800202F1005202F181520907C90EF3
:103C7000D2F800C003FA01F14CEA01011160401CC6
:103C80002828E8D341F2D011144804F034D8BDE814
:103C9000104041F2D011124804F02D98114810B58F
:103CA000C06911490840FFF7CDF94FF480610A4817
:103CB00004F021D84FF47561084804F01CD84FF483
:103CC0007561074804F017D8BDE810400020FDF7E3
:103CD000F5BD0000BC0901200000203000001030BC
:103CE00000001430140401200100FF0082B040F6EF
:103CF000B832009013E000BF00BF00BF00BF00BF9C
:103D000000BF00BF00BF00BF00BF00BF00BF00BFBB
:103D100000BF00BF00BF0198411E0191EBD2009887
:103D2000411E009128BF0192F5D202B070472DE9E3
:103D3000F0410027604D0126002808BF2E701FD0DB
:103D400001282F7018BF6F701AD04FF04028D8F894
:103D5000100040F00400C8F810002978574C0029E2
:103D600014BF4EF608005648E06014BF55484FF0A7
:103D7000BB70A0605448006830F0FF0206D101E03B
:103D80006E70E2E7E26860F30302E26089B1A06866
:103D900040F01800A0600120FFF7A8FFA06840F4E1
:103DA0008050A0600120FFF7A1FFA06840F40070E0
:103DB000A0600120FFF79AFF687870B1E06840F0DA
:103DC0002000E060A06820F40070A0600120FFF7F0
:103DD0008DFFE06840F01000E060D4F8B00040F0E3
:103DE0000100C4F8B0000120FFF780FFE6674FF440
:103DF000E0602061C4F888702878002818BFC4F8F3
:103E00009460E06820F03000E060A06820F49050FA
:103E1000A060D8F8100020F00400C8F81000BDE839
:103E2000F0812648C16821F03001C160816821F429
:103E3000905181604FF04020016921F0040101613F
:103E400070474FF04020016941F0040101611A49B7
:103E50001A480A783AB1826842F018028260826891
:103E600042F490528260497819B1C16841F0300142
:103E7000C160D0F8B01041F00101C0F8B010704737
:103E80001249C0F3080041EA00200C490864704759
:103E90000A494FF0204008647047084A116C4FF0FF
:103EA00020401064506C11F0FF0FC0F308201CBFBD
:103EB00041F020411164704760040120006000401F
:103EC00005F401002000E800D0FE0400130000A06B
:103ED0004FF040200021016303224263826B22F0F5
:103EE0000F0242F003028263426942F00202426121
:103EF000026922F003020261026A22F001020262F8
:103F00003B4A136843F0010313603C22826128227C
:103F1000C2613848016038480160384850F88C2F39
:103F200042F480520260364A481E106035480160F3
:103F3000704710B501F04BFC32480468002C08BFF4
:103F400030BFFAD00021016001F045FC204610BDD1
:103F500010B501F03CFC2B4A002107234FF0402014
:103F6000146824B1116001F036FC204610BD72B611
:103F7000036320BF016362B6BFF36F8FBFF34F8F40
:103F8000EEE710B504460F2000F068FD0F2000F0AA
:103F90004DFD1D490A6842EA0400086010BD1A4937
:103FA0000A6822EA000008607047164A51685060AB
:103FB0000846704770B51448006814490968114DE7
:103FC00000EA0104696800291CBF2046884714F0F4
:103FD000100F05D0094850F88C1F41F48051016042
:103FE00007480460286840F40040286070BD000065
:103FF0000048004024480040104800400030004085
:1040000014480040640401201C4800401848004047
:10401000704770470022B2EBD10F26D20368B3F18C
:10402000FF3F04BF4368B3F1FF3F17D18368B3F18B
:10403000FF3F04BFC368B3F1FF3F0FD10369B3F182
:10404000FF3F04BF4369B3F1FF3F07D18369B3F179
:10405000FF3F04BFC369B3F1FF3F01D000207047A9
:104060002030521CB2EBD10FD8D30120704710B4CE
:104070000023B3EBD20F30D2D0F800C00C68A445B7
:1040800022D1D0F804C04C68A4451DD1D0F808C096
:104090008C68A44518D1D0F80CC0CC68A44513D1C5
:1040A000D0F810C00C69A4450ED1D0F814C04C69EA
:1040B000A44509D1D0F818C08C69A44504D1D0F822
:1040C0001CC0CC69A44502D010BC00207047203031
:1040D00020315B1CB3EBD20FCED310BC0120704754
:1040E0002DE9F041054601F07AFB002021264FF42E
:1040F000825784464FF4E0221660C5F800C011686C
:1041000041F004011160116811F0040FFBD1176038
:1041100080232C460021D4F80080B8F1FF3F04BF73
:10412000D4F80480B8F1FF3F1DD1D4F80880B8F16D
:10413000FF3F04BFD4F80C80B8F1FF3F13D1D4F88F
:104140001080B8F1FF3F04BFD4F81480B8F1FF3FEE
:1041500009D1D4F81880B8F1FF3F04BFD4F81C800F
:10416000B8F1FF3F08D0C2F800C0401CC0B2082818
:10417000C2D30220BDE8F081491C2034B1EBD30F3B
:10418000C9D3C2F800C00120BDE8F0812DE9F0419B
:10419000054601F024FB0020092684464FF4E02365
:1041A0001E60C5F800C0196841F004011960196863
:1041B00011F0040FFBD12C464FF400720021276848
:1041C000B7F1FF3F04BF6768B7F1FF3F17D1A7689A
:1041D000B7F1FF3F04BFE768B7F1FF3F0FD1276991
:1041E000B7F1FF3F04BF6769B7F1FF3F07D1A76988
:1041F000B7F1FF3F04BFE769B7F1FF3F08D0C3F84D
:1042000000C0401CC0B20328CAD30220BDE8F08120
:10421000491C2034B1EBD20FD1D3C3F800C0012028
:10422000BDE8F08170B50C46054601F0D8FA4FF4B0
:10423000E0220221116025F0030306201C601060BB
:10424000106810F0040FFBD1002010601868A04225
:1042500014BF0220012070BD2DE9F05F8846814621
:1042600004274FF07F0A4FF0020B4FF4E02601F0D5
:10427000B6FA4946424653464FF0060CC6F800B01F
:1042800052F8040B41F8040BC6F800C0306810F077
:10429000040FFBD15B1EF1D2002030604C46454636
:1042A0001F20D4E900C3D4E90221D5F800E0E64597
:1042B00004BFD5F804C09C4505D1AB68934204BF48
:1042C000EA688A4208D07F1E03D34846FFF708FFFA
:1042D000CDE70220BDE8F09F10341035401EE0D23B
:1042E0000120BDE8F09F70B50D46044601F077FA55
:1042F0004FF400722146284603F0A1DC012070BD76
:104300002DE9F0410546C005ADF5007D14460E4689
:10431000C00D25D0A8466FF308086F4601F05FFA7C
:104320004FF400724146384603F089DCC5F30800BB
:10433000C0F50077A74288BF274668443A46314611
:1043400003F038DC4046FFF7CBFE022844D0694634
:104350004046FFF781FF022843D03D443E44E41B22
:10436000B4F5007F19D34FF400723146684603F06C
:1043700021DC2846FFF7B4FE02282DD069462846E6
:10438000FFF76AFF02282CD0A4F5007405F500752C
:1043900006F50076B4F5007FE5D2C4B16F4601F0B2
:1043A0001EFA4FF400722946384603F048DC2246D4
:1043B0003146684603F0FEDB2846FFF791FE0228EF
:1043C0000AD069462846FFF747FF022809D00DF5B5
:1043D000007D0120BDE8F0810DF5007D0A20BDE8DB
:1043E000F0810DF5007D0B20BDE8F08130B4304D3B
:1043F0002A68002101244FF0030C04FA01F3034260
:1044000004D04B000CFA03F39A431A43491C0D29BC
:10441000F3DB2A6030BC7047F0B4254D2A680021D8
:1044200001244FF0030C022604FA01F3034206D0E4
:104430004B000CFA03F7BA4306FA03F31A43491C7C
:104440000D29F1DB2A60F0BC70472DE9F001002254
:104450000125184C0F2605FA02F3034217D0D31793
:1044600002EB537C4FEAEC0304EB83031F682CF050
:10447000070CA2EB0C0C4FEA8C0C06FA0CF827EA9E
:10448000080701FA0CFC47EA0C0CC3F800C0521CE8
:104490000D2AE0DB06498A6A22EA00008862BDE84C
:1044A000F001704702498A6A10438862704770477A
:1044B0000010004020100040704772B64FF04020BE
:1044C000816941F040018161C16941F04001C161F0
:1044D00062B6016A41F00101016270474FF040206D
:1044E000016A21F00101016272B6C16921F0400147
:1044F000C161816921F04001816162B6704710B5E8
:1045000072B64FF04024A06940F04000A061E0691D
:1045100040F04000E06162B6206A40F00100206295
:10452000FE494FF00110086003210A2000F05BFAF9
:104530000A2000F07BFA206A20F00100206272B6A7
:10454000E06920F04000E061A06920F04000A06137
:1045500062B610BDF14A41EA004313610023536182
:10456000401E491E41EA00409061704710B441EA84
:104570000041DDE9014CE948016143EA0241416142
:104580004CEA0441816110BC7047DFF890C3CCF85D
:104590002000CCF82410CCF82820CCF82C300220B5
:1045A000CCF804000120CCF80800DCF80C0010F076
:1045B000020F05D020BFDCF80C0010F0020FF9D17B
:1045C0000020704710B40124DFF850C3002B12BF45
:1045D000CCF840400023CCF84030CCF82000CCF898
:1045E0002420CCF82810CCF80440CCF80840DCF8A3
:1045F0000C0010F0010F05D020BFDCF80C0010F00B
:10460000010FF9D110BC00207047C44982898A6427
:1046100002684A6242688A628268CA6280224A608C
:1046200001228A60CA6812F0800F04D020BFCA68D5
:1046300012F0800FFAD18A6E120C02614A6E1214C7
:1046400082824A6EC2F30722C2824A6ED2B20283CB
:104650000A6E121442830A6EC2F3072282830A6E24
:10466000D2B2C2830A6FC2F30A420284096FC1F355
:104670000A01418400207047027C017B02F03F0266
:1046800041EA0242A549CA6402688A6242684A62F3
:104690008268CA6204224A6001228A60CA6812F0F3
:1046A000040F04D020BFCA6812F0040FFAD1CA6EFA
:1046B000D2B28282CA6EC2F30722C2828A6ED2B29C
:1046C00002838A6EC2F3072242834A6EC2F3072234
:1046D0008283496EC9B2C18300207047DFF83CC2B3
:1046E000CCF84020CCF82000CCF82830CCF82410AE
:1046F0000820CCF804000120CCF80800DCF80C00FD
:1047000010F0080F05D020BFDCF80C0010F0080FE7
:10471000F9D100207047C388B0F800C043EA0C4CC0
:104720007E4BC3F848C0D0F802004FEA3040D8644E
:1047300019625A622020586001209860D86810F0F1
:10474000200F04D020BFD86810F0200FFAD100202D
:10475000704710B4DFF8C4C1C488CCF84040048866
:104760002404CCF84840D0F802404FEA3444CCF856
:104770004C40447A007A04F0010400F0010044EA5D
:104780000040CCF84400CCF82010CCF83030CCF805
:1047900024204020CCF804000120CCF80800DCF8EC
:1047A0000C0010F0400F05D020BFDCF80C0010F01A
:1047B000400FF9D110BC00207047A3F1050C574BF6
:1047C000C3F840C018629A625962102058600120F4
:1047D0009860D86810F0100F04D020BFD86810F08F
:1047E000100FFAD1002070474C4B186259625A647E
:1047F0009815586001209860D86810F4807F04D024
:1048000020BFD86810F4807FFAD100207047434B56
:10481000186259629A620120002A12BF586400216E
:1048200059644FF4007159609860D86810F4007FA3
:1048300004D020BFD86810F4007FFAD10020704760
:10484000DFF8D8C030B4CCF82000CCF824104FF4F6
:10485000702420120121032B2DD0CCF84010D388D6
:1048600004EA0343B2F9044000EA042423439478A1
:1048700004F00F042343CCF85030B2F9083012781A
:1048800000EA032002F00F021043CCF854004FF46A
:104890008060CCF80400CCF80810DCF80C0010F4B0
:1048A000806F05D020BFDCF80C0010F4806FF9D1C8
:1048B00030BC002070470023CCF84030958804EAD3
:1048C0000544B2F90250127800EA0520204302F0B4
:1048D0000F021043CCF85000CCF85430D7E7DFF883
:1048E0003CC0CCF82000CCF82410CCF82820CCF820
:1048F00048304FF40060CCF804000120CCF80800E8
:10490000DCF80C0010F4006F05D020BFDCF80C00C0
:1049100010F4006FF9D100207047000000900040B3
:10492000094B186259629A62981458600120986085
:10493000D86810F4805F04D020BFD86810F4805F7E
:10494000FAD100207047000000900040234810B5C5
:10495000022140F8501F012101611021416241F202
:10496000060141610021816104218163902141633D
:10497000416B41F001014163C16B21F40021C1632E
:10498000C16B41F40051C163C16B21F00101C163EE
:10499000C16B41F00101C1634FF48171016101619B
:1049A000032000F043F80021032000F01CF8002051
:1049B00010BD10B5032000F045F808484FF4807191
:1049C00001660021016610218167022141650020F6
:1049D00010BD0349002008707047000000300040FF
:1049E0006C040120704700F00303DA004FF0FF0C65
:1049F0000CFA02F24FF0050C0CEBC30301FA03F3BF
:104A000000F0FC0101F1E021002807DAD1F8140DD3
:104A100090431A401043C1F8140D7047D1F80004B8
:104A200090431A401043C1F80004704700F01F0182
:104A3000012202FA01F14009800000F1E020C0F8F3
:104A40000011704700F01F01012202FA01F1400934
:104A5000800000F1E020C0F88011704700F01F01D5
:104A6000012202FA01F14009800000F1E020C0F8C3
:104A7000801270471349086070474FF0E021C1F879
:104A8000000170474FF0E021C1F8800170474FF0FE
:104A9000E020D0F8000170474FF0E021C1F880021B
:104AA0007047094800687047074A11681060084657
:104AB0007047054A126800F1100352F8230042F8CB
:104AC0002310704700EF00E008ED00E002210C2009
:104AD000FFF789BF72B64FF04020816941F48051E1
:104AE0008161C16941F48051C16162B6704772B69B
:104AF0004FF04020816921F480518161C16921F426
:104B00008051C16162B67047AA4881B0016F11F44B
:104B1000007FFBD1816E11F0010F1CBFD0F8841013
:104B2000009104D0D0F88410009A9142FAD0016F1D
:104B300011F4007F04BF4CF27101016642F2413171
:104B4000816601B070479B4981B04FF40D528A666F
:104B50000A6FCA66012898BF012005D9401EB0F52A
:104B6000803F28BF4FF6FF7082B24FF05C5040EAA2
:104B7000022048664FF01140C1F88000086F10F421
:104B8000007FFBD1886E10F0010F1CBFD1F88400AC
:104B9000009004D0D1F88400009A9042FAD0086FB7
:104BA00010F4007F04BF4CF27100086642F24130FD
:104BB000886601B070477F4881B0016F11F4007FB3
:104BC000FBD1816E11F0010F1CBFD0F88410009151
:104BD00004D0D0F88410009A9142FAD04FF40D51CD
:104BE000816601B070474FF04020806910F480501A
:104BF00008BF70476F48806E00F0010070476D4835
:104C0000406EC0F30F2070476A48D0F884007047A8
:104C100010B50C20FFF722FF0C20FFF707FF6549B6
:104C20000220486710BD634910B5032088670C2037
:104C3000FFF708FFBDE810400C20FFF70FBF5E4AEA
:104C400011681060084670475A4810B5016FC16678
:104C500059480068002818BF80475848016841F447
:104C60008051016010BD54484068704710B572B65D
:104C70004FF04020816941F480518161C16941F464
:104C80008051C16162B603204A4988670C20FFF752
:104C9000D9FE0C20FFF7E2FE00F036F9484B042065
:104CA000C3F888004FF6FF70C3F88C0072B660330B
:104CB000FFF749FF4FF40070186062B610BDF8B5F9
:104CC00072B63C48016F11F4007FFBD1816E11F088
:104CD000010F1CBFD0F88410009104D0D0F88410CC
:104CE000009A9142FAD04FF40D51816634494FF445
:104CF00000320A6662B6D1F804124FF0402500294E
:104D000046D02D4C4FF6FF73591AA1602A6B09014A
:104D100002F00F02521C51436A6BDFF8A8C002F088
:104D20000F02521C4A43A2F59231F93961452FD244
:104D3000D0F88400191AE160B1F5803F28D2224BE7
:104D40004FF0000CA1FB03070CFB037301FB0C31BC
:104D5000634602F00BDF401C40082061B0F57A7F0B
:104D600038BF4FF47A70194B9968002908BF9860D2
:104D70005A681A609968C3E901108A4215D98242BB
:104D800005D9814201D9616002E0606000E06260A3
:104D900000F0CAF872B6A86920F48050A861E869EA
:104DA00020F48050E86162B6F8BD8242EFD88142BB
:104DB000EBD8E8E700C00040700401206404012043
:104DC00000A000407713380080D1F0085C0A012071
:104DD0000C48016841F404710160001F016821F072
:104DE00004010160016841F010010160704706494B
:104DF00008607047BFF34F8F054904480860BFF350
:104E00004F8FFEE714ED00E008ED00E00400FA0526
:104E10000CED00E00E48016841F0010101600E490F
:104E20000C48C1F8C40070470C48006842F2700199
:104E3000084070470B480A4901600B498160002116
:104E4000C1604CF6CC41016109014161704700002D
:104E5000144C004001005FA000600040004400408E
:104E6000A0802B0000100040504A5601022824BFA9
:104E700000207047E34B53F8202043F820101046E1
:104E8000704770B5E04C206FDE4D10F0010F05D07B
:104E90000120E0662868002818BF8047206F10F0C6
:104EA000020F08BF70BD0220E0666868002808BFD6
:104EB00070BDBDE87040004710B572B64FF040209D
:104EC000816941F080018161C16941F08001C16166
:104ED00062B60222CC490A6501230B660323CB6626
:104EE0004A6572B6816921F080018161C16921F052
:104EF0008001C16162B60920FFF798FD0221BDE87B
:104F000010400920FFF76FBD72B64FF04020816955
:104F100041F080018161C16941F08001C16162B6E7
:104F20000220B94908657047B7490220486572B642
:104F30004FF04020816921F080018161C16921F039
:104F40008001C16162B670474FF040208069C0F3B4
:104F5000C0107047AC48016F11F4007F14BF4FF4CC
:104F600040714FF480710166704710B5A64CE06F38
:104F700010F0020F4FF0010018BF0320606700F02F
:104F80007DF94FF040210A6B496B02F00F0201F0EE
:104F90000F01491C521C5143B0FBF1F00521B0FB3D
:104FA000F1F04FF405710009C4F880109749A1FB96
:104FB00000104009C4F88400206F10F4007F14BF73
:104FC0004FF440704FF48070206610BD8E48016F22
:104FD00011F4807F14BF4FF440714FF400710166EB
:104FE0007047894B30B4DA6F12F0010F14BF0322FF
:104FF00002225A6700EB400540F2EE24C5EBC010D8
:105000004C43C1EBC00040F231114843804904EBEE
:105010004000A1FB00104FF0402100220C6B4FF02C
:10502000020CC008496B04F00F0401F00F01491C89
:10503000641C6143B0FBF1F00521B0FBF1F0B0F569
:10504000803F05D3511C4008CAB2B0F5803FF9D269
:1050500042EA0C2141F01001C3F88810C3F88C001B
:10506000186F10F4807F14BF4FF440704FF400703D
:10507000186630BC70476448016F11F4003F14BFDC
:105080004FF440314FF48031016670475E48016F44
:1050900011F4803F14BF4FF440314FF400310166EA
:1050A00070475948006FC0F3002070475648006FA2
:1050B000C0F3402070474FF040218969C1F3C0110F
:1050C000002904BF002070474F4900280CBFD1F8C9
:1050D0000002D1F8040270474FF040239A69C2F3EE
:1050E000C012002A04BF00207047474A00280CBFA6
:1050F000D2F88000D2F88800C0F30A200CBFD2F8A2
:105100008020D2F8882002F00F0291401A6B02F042
:105110000F02521C51435A6B02F00F02521C5143B2
:10512000012202EB400048433A49A1FB0010C008AD
:105130007047394901200870704770B44FF0402320
:10514000C1EB01111A6B01EB8101D3F834C002F0FD
:105150000F020CF00F0C521C0CF1010C02FB0CF2B4
:105160000909B1FBF2F1002908BF012104D0B1F512
:10517000803F28BF4FF6FF719A69C2F3C012002A20
:105180001CBF70BC704772B69A6942F080029A6187
:10519000DA6942F08002DA6162B61B4A4FF0020C13
:1051A000C2F850C04FF4003414660425C2F8885089
:1051B000C2F88C10194DD566C2F874C0184902287F
:1051C0003CBF104E46F820100021134801704FF4E8
:1051D00000711166017819B920BF01780029FBD050
:1051E00014669567D566C2F854C072B6986920F007
:1051F00080009861D86920F08000D86162B670BCE8
:10520000704700008804012000A000401F85EB517A
:10521000CDCCCCCCB5814E1B84040120020002020F
:10522000E37000004FF0E02100208861086126490A
:105230004860704710B54FF0E02460610020A06125
:105240000221401EFFF7CFFB07202061BDE8104080
:1052500008F0A8B810B508F0A9F84FF0E021002038
:10526000086110BD10B508F0A1F84FF0E021002052
:10527000086115480188491C018010BD12488068EA
:1052800070472DE9F041104C002705462780A068A3
:105290004FF47A71B0FBF1F04FF0E026401E7061E0
:1052A000B7610221C81EFFF79EFB0720306108F09E
:1052B00079F82188A942FCD308F078F83761BDE875
:1052C000F081014988607047900401204FF0402030
:1052D000016C21F001010164816921F400518161B7
:1052E000C16921F40051C16170470F2934BF6FF0CB
:1052F0007F42A1F10F02810001F1804101F550418F
:105300004A614969F74A42F8201070474FF040203F
:10531000816941F400518161C16941F40051C16169
:10532000016C41F001010164704710B501210720B3
:10533000FFF759FB4FF04021886940F40050886125
:10534000C86940F40050C861086C40F0010008646E
:10535000E54800220260E54B4360826040F6C412DB
:10536000C260012242614369DE4A6FF07F4C1360E4
:10537000031DC3F814C05B6953606FF0FE42C26145
:10538000DB4A02624FF0FF32C2620A22026341F23C
:10539000883242630A0382630F22C263D54A0261E4
:1053A000086C20F001000864886920F400508861CE
:1053B000C86920F40050C86110BDCF49CF4A0144EC
:1053C00091423CBFCE4948607047012898BF704762
:1053D0004FF040210A6B496B02F00F0201F00F0100
:1053E000491C521C5143C74AB2FBF1F1BE4A926BB1
:1053F000401EB1FBF0F0120C5043BF49BF4A0144BC
:105400008A4284BFBE494860704710B54FF04024BF
:10541000A069C0F3403058B9A06940F40050A061C1
:10542000E06940F40050E061206C40F0010020642D
:1054300000F06FF9B24B0020AB4998709861D861C9
:10544000886B6FF30F008863086940F00100086102
:10545000886B020C086940F400400861501E002A65
:105460002BDD0A6C12F4805F23D0086F012824D949
:10547000226BD4F834C002F00F020CF00F0C521C57
:105480000CF1010C02FB0CF2DFF878C2BCFBF2F26B
:10549000D1F838C0401EB2FBF0F04FEA1C4C00FBC4
:1054A0000CF0954ADFF854C20244944588BF586016
:1054B00003E0021EA0F10100D3DC086920F40040E3
:1054C00008614FF48050086410BD4FF0402080699F
:1054D000C0F34030002808BF70478348016921F0BD
:1054E0000101016170474FF04020806910F40050C5
:1054F00008BF70477C48006900F0010070474FF01A
:105500004020806910F4005F08BF704770B5764C8A
:10551000206910F0010F08BF70BDFFF7B8FA00F066
:1055200080058020FFF7AEFA4FF480512164206996
:1055300040F4004121612846BDE87040FFF79DBA64
:105540004FF04020806910F4005F08BF704770B5CD
:10555000654C206910F0010F08BF70BDFFF797FA86
:1055600000F080058020FFF78DFA206C10F4805F3A
:105570001CBF206FFFF729FF206920F40040206145
:105580004FF4805020642846BDE87040FFF775BA9C
:105590004FF040208069C0F3403000281CBF5248C3
:1055A000806D70474FF040208069C0F34030002884
:1055B0001CBF4D48006D70474FF040208069C0F31C
:1055C0004030002808BF7047474A106D4C490028FA
:1055D0001CBF5268824291BF0020401C4A68B2FB47
:1055E000F0F0886070474FF040208069C0F3403091
:1055F000002808BF70473C4AD06D414900281CBFB5
:10560000D268824291BF0020401C4A68B2FBF0F091
:10561000C86070473449C8627047002908BF6FF0FE
:105620007F41421E02F07F0262F31F6128BF4FF0EC
:10563000004008432C49C861704710B50720FFF7A8
:105640000DFA0720FFF7F2F92748016C01642E4993
:10565000816240F60741416210BD234810B5002128
:10566000416281620720FFF7EDF9BDE81040072095
:10567000FFF7F4B9224A1169106108467047204AC1
:1056800051695061084670471D49087070471C48B1
:105690000078704710B51A4C617811F0800F08BF80
:1056A000607005D010F0800F1CBF00F07F006070AC
:1056B0006078884310F0010F08BF10BD00F029F892
:1056C0000020A070A061E06110BD0D4840787047D7
:1056D0000B48807870470A48806970470848C0695D
:1056E00070470000C804012000D00040D012130011
:1056F0000F0008002A09DF33F0A1A0FF71929B027E
:105700009C040120C0687804070003001348006A65
:1057100070474FF040208069C0F34030002808BF38
:1057200070470E48407810F0010F0D48816A07D08D
:1057300041F080018162416A41F08001416270471D
:1057400021F080018162416A21F0800141620549B6
:105750000A68426149688161704700009C04012029
:1057600000D00040C8040120704770B505464FF4D2
:105770000D500406A0660320E066264860664CF2E1
:10578000710020662448C4F8800042F24630A066CA
:1057900002210020FFF727F90020FFF747F9002D2D
:1057A00008BF70BDA06E42F241310843A06670BDD3
:1057B000012110B5880781674FF40D5181660020E3
:1057C000FFF740F9BDE810400020FFF747B901207E
:1057D00081074867704701208107886770474CF24E
:1057E00071008107086670470C4A1168106008460E
:1057F00070470A4808B5006818B18047002818BFEC
:1058000008BD4CF2710188070166016FC166006F27
:10581000009008BD070D8F3700864791D004012006
:1058200070B5FF4C00254FF4F06125702571FD48DF
:1058300002F061DA4FF4F061FB4802F05CDAA56037
:1058400065715021F94802F056DA5021F84802F00B
:1058500052DAA5717821F74802F04DDA7821F6483E
:1058600002F049DAE56070BDED484079002818BFC4
:1058700001207047EA488079002818BF012070474E
:10588000E7480079002818BF01207047E9487047B1
:1058900070B5EA4EEA4D0446014632782878E54B69
:1058A00010444200184602F085D932782878E24B3D
:1058B000104442002146184602F07CD9D849012004
:1058C000887170BDD648C0687047D64870472DE9CA
:1058D000F041D34F80463878002814BFD948DA48C1
:1058E000057814BFD948DA48047805FB04F6FEF7BA
:1058F000E4FD21462846FEF72DFECA494346CA4A22
:105900000846FEF742FEFEF7E9FD72004146C64832
:1059100002F050D901203871BDE8F0812DE9F0473F
:10592000BF4D044601462878DFF8F8C2DFF814833B
:10593000DFF81493C54EC64F002815BF98F8002015
:1059400099F8002033783B7802FB03F04FEA4002DD
:10595000604602F02FD92878DFF8CCC22146002813
:1059600015BF98F8002099F8002033783B7802FBA7
:1059700003F04FEA4002604602F01CD90120287172
:10598000BDE8F087A6488068704770B5B14C054601
:1059900001462278A548520002F00CD92278294607
:1059A0005200A34802F006D99D490120487170BDFC
:1059B0009B49887070479A48807870472DE9F04F6E
:1059C000ADF2C47DDFF858A20120CDF8A8079AF8FF
:1059D0000400CDF8A4079AF80500CDF8A0079AF8BE
:1059E00006000024CDF89C0701F026F80546FDF7D7
:1059F0006FFACDF8BC07FDF7D2FCCDF8B807FBF77E
:105A000058FFCDF8B407FBF7ECFB0646FBF7E6FBC7
:105A10000746FDF75FFA9AF80100002804BF04204A
:105A2000CAF8140025D0022D18BF642404D001F058
:105A30001BF806281AD112E0FEF38FF548F2021186
:105A4000084214BF4FF4FA74FA2407F0BBFD10F0BB
:105A5000FE0FECD06424002007F0B1FDE7E79AF8D0
:105A6000020018B10F2400208AF8020000208AF8F2
:105A700001004FF00109022F0AD1022D08BF4FF497
:105A80007A7403D0052D08BF322401D18AF8019021
:105A9000002C22DD16F0010F11D001F001F948B100
:105AA000604300F5FA714FF47A70B1FBF0F0CAF878
:105AB000140012E0052D14BF78203C20F0E70020F0
:105AC000FBF732FC4FF47A71614300F5967001EBFD
:105AD0005001B1FBF0F0CAF81400DAF81400022803
